{
  "contractName": "Host",
  "abi": [
    {
      "constant": true,
      "inputs": [
        {
          "name": "",
          "type": "uint256"
        }
      ],
      "name": "allInventors",
      "outputs": [
        {
          "name": "",
          "type": "address"
        }
      ],
      "payable": false,
      "stateMutability": "view",
      "type": "function"
    },
    {
      "constant": true,
      "inputs": [
        {
          "name": "",
          "type": "address"
        }
      ],
      "name": "inventors",
      "outputs": [
        {
          "name": "",
          "type": "bool"
        }
      ],
      "payable": false,
      "stateMutability": "view",
      "type": "function"
    },
    {
      "constant": true,
      "inputs": [
        {
          "name": "",
          "type": "address"
        }
      ],
      "name": "drawers",
      "outputs": [
        {
          "name": "",
          "type": "bool"
        }
      ],
      "payable": false,
      "stateMutability": "view",
      "type": "function"
    },
    {
      "constant": true,
      "inputs": [
        {
          "name": "",
          "type": "address"
        }
      ],
      "name": "patentOffices",
      "outputs": [
        {
          "name": "",
          "type": "bool"
        }
      ],
      "payable": false,
      "stateMutability": "view",
      "type": "function"
    },
    {
      "constant": true,
      "inputs": [
        {
          "name": "",
          "type": "address"
        }
      ],
      "name": "nationalizers",
      "outputs": [
        {
          "name": "",
          "type": "bool"
        }
      ],
      "payable": false,
      "stateMutability": "view",
      "type": "function"
    },
    {
      "constant": true,
      "inputs": [
        {
          "name": "",
          "type": "address"
        }
      ],
      "name": "translators",
      "outputs": [
        {
          "name": "",
          "type": "bool"
        }
      ],
      "payable": false,
      "stateMutability": "view",
      "type": "function"
    },
    {
      "constant": true,
      "inputs": [
        {
          "name": "",
          "type": "address"
        }
      ],
      "name": "patentAgents",
      "outputs": [
        {
          "name": "",
          "type": "bool"
        }
      ],
      "payable": false,
      "stateMutability": "view",
      "type": "function"
    },
    {
      "constant": true,
      "inputs": [],
      "name": "host",
      "outputs": [
        {
          "name": "",
          "type": "address"
        }
      ],
      "payable": false,
      "stateMutability": "view",
      "type": "function"
    },
    {
      "constant": false,
      "inputs": [
        {
          "name": "inventor",
          "type": "address"
        }
      ],
      "name": "registerInventor",
      "outputs": [],
      "payable": false,
      "stateMutability": "nonpayable",
      "type": "function"
    },
    {
      "constant": false,
      "inputs": [
        {
          "name": "patentAgent",
          "type": "address"
        }
      ],
      "name": "registerPatentAgent",
      "outputs": [],
      "payable": false,
      "stateMutability": "nonpayable",
      "type": "function"
    },
    {
      "constant": false,
      "inputs": [
        {
          "name": "drawer",
          "type": "address"
        }
      ],
      "name": "registerDrawer",
      "outputs": [],
      "payable": false,
      "stateMutability": "nonpayable",
      "type": "function"
    },
    {
      "constant": false,
      "inputs": [
        {
          "name": "nationalizer",
          "type": "address"
        }
      ],
      "name": "registerNationalizer",
      "outputs": [],
      "payable": false,
      "stateMutability": "nonpayable",
      "type": "function"
    },
    {
      "constant": false,
      "inputs": [
        {
          "name": "translator",
          "type": "address"
        }
      ],
      "name": "registerTranslator",
      "outputs": [],
      "payable": false,
      "stateMutability": "nonpayable",
      "type": "function"
    },
    {
      "constant": false,
      "inputs": [
        {
          "name": "patentOffice",
          "type": "address"
        }
      ],
      "name": "registerPatentOffices",
      "outputs": [],
      "payable": false,
      "stateMutability": "nonpayable",
      "type": "function"
    },
    {
      "constant": true,
      "inputs": [
        {
          "name": "inventor",
          "type": "address"
        }
      ],
      "name": "isRegisteredAsInventor",
      "outputs": [
        {
          "name": "",
          "type": "bool"
        }
      ],
      "payable": false,
      "stateMutability": "view",
      "type": "function"
    },
    {
      "constant": true,
      "inputs": [
        {
          "name": "patentAgent",
          "type": "address"
        }
      ],
      "name": "isRegisteredAsPatentAgent",
      "outputs": [
        {
          "name": "",
          "type": "bool"
        }
      ],
      "payable": false,
      "stateMutability": "view",
      "type": "function"
    },
    {
      "constant": true,
      "inputs": [
        {
          "name": "drawer",
          "type": "address"
        }
      ],
      "name": "isRegisteredAsDrawer",
      "outputs": [
        {
          "name": "",
          "type": "bool"
        }
      ],
      "payable": false,
      "stateMutability": "view",
      "type": "function"
    },
    {
      "constant": true,
      "inputs": [
        {
          "name": "nationalizer",
          "type": "address"
        }
      ],
      "name": "isRegisteredAsNationalizer",
      "outputs": [
        {
          "name": "",
          "type": "bool"
        }
      ],
      "payable": false,
      "stateMutability": "view",
      "type": "function"
    },
    {
      "constant": true,
      "inputs": [
        {
          "name": "translator",
          "type": "address"
        }
      ],
      "name": "isRegisteredAsTranslator",
      "outputs": [
        {
          "name": "",
          "type": "bool"
        }
      ],
      "payable": false,
      "stateMutability": "view",
      "type": "function"
    },
    {
      "constant": true,
      "inputs": [
        {
          "name": "patentOffice",
          "type": "address"
        }
      ],
      "name": "isRegisteredAsPatentOffice",
      "outputs": [
        {
          "name": "",
          "type": "bool"
        }
      ],
      "payable": false,
      "stateMutability": "view",
      "type": "function"
    }
  ],
  "bytecode": "0x608060405234801561001057600080fd5b506107c6806100206000396000f3fe608060405234801561001057600080fd5b5060043610610149576000357c0100000000000000000000000000000000000000000000000000000000900480639a287c2c116100ca578063cbb96b001161008e578063cbb96b00146103b1578063d89c8d66146103d7578063f437bc59146103fd578063f4e0bd3c14610405578063fc413e731461042b57610149565b80639a287c2c146102f3578063a7bbc0d714610319578063ad0273e61461033f578063c1e0afff14610365578063c7559c2b1461038b57610149565b80636db64f86116101115780636db64f861461022257806376e10a2c146102485780637ef27b251461026e578063800fdf85146102a75780638183a231146102cd57610149565b8063154f741a1461014e578063309090031461018857806340a80beb146101b05780635fd70642146101d6578063613f93d5146101fc575b600080fd5b6101746004803603602081101561016457600080fd5b5035600160a060020a0316610451565b604080519115158252519081900360200190f35b6101ae6004803603602081101561019e57600080fd5b5035600160a060020a031661046f565b005b6101ae600480360360208110156101c657600080fd5b5035600160a060020a03166104aa565b610174600480360360208110156101ec57600080fd5b5035600160a060020a03166104e5565b6101ae6004803603602081101561021257600080fd5b5035600160a060020a0316610503565b6101746004803603602081101561023857600080fd5b5035600160a060020a031661053e565b6101ae6004803603602081101561025e57600080fd5b5035600160a060020a031661055c565b61028b6004803603602081101561028457600080fd5b5035610597565b60408051600160a060020a039092168252519081900360200190f35b610174600480360360208110156102bd57600080fd5b5035600160a060020a03166105bf565b610174600480360360208110156102e357600080fd5b5035600160a060020a03166105d4565b6101746004803603602081101561030957600080fd5b5035600160a060020a03166105f2565b6101746004803603602081101561032f57600080fd5b5035600160a060020a0316610607565b6101746004803603602081101561035557600080fd5b5035600160a060020a031661061c565b6101ae6004803603602081101561037b57600080fd5b5035600160a060020a0316610631565b6101ae600480360360208110156103a157600080fd5b5035600160a060020a031661066c565b610174600480360360208110156103c757600080fd5b5035600160a060020a0316610725565b610174600480360360208110156103ed57600080fd5b5035600160a060020a031661073a565b61028b61074f565b6101746004803603602081101561041b57600080fd5b5035600160a060020a031661075e565b6101746004803603602081101561044157600080fd5b5035600160a060020a031661077c565b600160a060020a031660009081526006602052604090205460ff1690565b600054600160a060020a0316331461048657600080fd5b600160a060020a03166000908152600660205260409020805460ff19166001179055565b600054600160a060020a031633146104c157600080fd5b600160a060020a03166000908152600760205260409020805460ff19166001179055565b600160a060020a031660009081526004602052604090205460ff1690565b600054600160a060020a0316331461051a57600080fd5b600160a060020a03166000908152600360205260409020805460ff19166001179055565b600160a060020a031660009081526003602052604090205460ff1690565b600054600160a060020a0316331461057357600080fd5b600160a060020a03166000908152600560205260409020805460ff19166001179055565b60028054829081106105a557fe5b600091825260209091200154600160a060020a0316905081565b60016020526000908152604090205460ff1681565b600160a060020a031660009081526001602052604090205460ff1690565b60046020526000908152604090205460ff1681565b60076020526000908152604090205460ff1681565b60056020526000908152604090205460ff1681565b600054600160a060020a0316331461064857600080fd5b600160a060020a03166000908152600460205260409020805460ff19166001179055565b600054600160a060020a0316331461068357600080fd5b600160a060020a03811660009081526001602052604090205460ff1615156106fe57600280546001810182556000919091527f405787fa12a823e0f2b7631cc41b3ba8828b3321ca811111fa75cd3aa3bb5ace01805473ffffffffffffffffffffffffffffffffffffffff1916600160a060020a0383161790555b600160a060020a03166000908152600160208190526040909120805460ff19169091179055565b60066020526000908152604090205460ff1681565b60036020526000908152604090205460ff1681565b600054600160a060020a031681565b600160a060020a031660009081526007602052604090205460ff1690565b600160a060020a031660009081526005602052604090205460ff169056fea165627a7a723058205c21d68233668eb55fe9a568f29ae129fa337aceeab27b33cfd39826482685550029",
  "source": "pragma solidity ^0.5.2;\nimport \"./Helper.sol\";\n\ncontract Host is Helper {\n\n\t/// address of the node initializing the contract and managing the identities\n\taddress public host;\n\n\t/// registered 3rd parties\n\tmapping(address => bool) public inventors;\n\taddress[] public allInventors;\n\tmapping(address => bool) public patentAgents;\n\tmapping(address => bool) public drawers;\n\tmapping(address => bool) public nationalizers;\n\tmapping(address => bool) public translators;\n\tmapping(address => bool) public patentOffices;\n\n\t/// modifiers \n\tmodifier onlyHost() {\n\t\trequire(msg.sender == host);\n\t\t_;\n\t}\n\n\tmodifier onlyInventor(address inventor) {\n\t\trequire (isRegisteredAsInventor(inventor));\n\t\t_;\n\t}\n\n\tmodifier onlyPatentAgent(address patentAgent) {\n\t\trequire (isRegisteredAsPatentAgent(patentAgent));\n\t\t_;\n\t}\n\n    modifier only3rdParty(address actor) {\n    \trequire (\n    \t\tisRegisteredAsInventor(actor) ||\n    \t\tisRegisteredAsPatentAgent(actor) ||\n    \t\tisRegisteredAsDrawer(actor) ||\n    \t\tisRegisteredAsNationalizer(actor) ||\n    \t\tisRegisteredAsTranslator(actor) ||\n    \t\tisRegisteredAsPatentOffice(actor));\n    \t_;\n    }\n\n\t/// functions for registering 3rd parties\n\tfunction registerInventor(address inventor) public onlyHost {\n\t    if (inventors[inventor] == false) {\n\t        allInventors.push(inventor);\n\t    }\n\t\tinventors[inventor] = true;\t\n\t}\n\n\tfunction registerPatentAgent(address patentAgent) public onlyHost {\n\t\tpatentAgents[patentAgent] = true;\n\t}\n\n\tfunction registerDrawer(address drawer) public onlyHost {\n\t\tdrawers[drawer] = true;\n\t}\n\n\tfunction registerNationalizer(address nationalizer) public onlyHost {\n\t\tnationalizers[nationalizer] = true;\n\t}\n\n    function registerTranslator(address translator) public onlyHost {\n\t\ttranslators[translator] = true;\n\t}\n\n\tfunction registerPatentOffices(address patentOffice) public onlyHost {\n\t\tpatentOffices[patentOffice] = true;\n\t}\n\n\t/// functions for checking registrations of 3rd parties\n\tfunction isRegisteredAsInventor(address inventor) public view returns(bool) {\n\t\treturn inventors[inventor];\n\t}\n\n\tfunction isRegisteredAsPatentAgent(address patentAgent) public view returns(bool) {\n\t\treturn patentAgents[patentAgent];\n\t}\n\n\tfunction isRegisteredAsDrawer(address drawer) public view returns(bool) {\n\t\treturn drawers[drawer];\n\t}\n\n\tfunction isRegisteredAsNationalizer(address nationalizer) public view returns(bool) {\n\t\treturn nationalizers[nationalizer];\n\t}\n\n    function isRegisteredAsTranslator(address translator) public view returns(bool) {\n\t\treturn translators[translator];\n\t}\n\n\tfunction isRegisteredAsPatentOffice(address patentOffice) public view returns(bool) {\n\t\treturn patentOffices[patentOffice];\n\t}\n}\n",
  "sourcePath": "/Users/Korbi/Developer/Blockchain/patent-hub/ethereum-private-network/truffle-code/patent-hub/contracts/Host.sol",
  "compiler": {
    "name": "solc",
    "version": "0.5.2+commit.1df8f40c.Emscripten.clang"
  },
  "schemaVersion": "3.0.11",
  "updatedAt": "2019-06-30T10:21:05.409Z",
  "devdoc": {
    "methods": {}
  },
  "userdoc": {
    "methods": {
      "isRegisteredAsInventor(address)": {
        "notice": "functions for checking registrations of 3rd parties"
      },
      "registerInventor(address)": {
        "notice": "functions for registering 3rd parties"
      }
    }
  }
}