{
  "contractName": "PatentHub",
  "abi": [
    {
      "constant": true,
      "inputs": [
        {
          "name": "translator",
          "type": "address"
        }
      ],
      "name": "isRegisteredAsTranslator",
      "outputs": [
        {
          "name": "",
          "type": "bool"
        }
      ],
      "payable": false,
      "stateMutability": "view",
      "type": "function"
    },
    {
      "constant": false,
      "inputs": [
        {
          "name": "translator",
          "type": "address"
        }
      ],
      "name": "registerTranslator",
      "outputs": [],
      "payable": false,
      "stateMutability": "nonpayable",
      "type": "function"
    },
    {
      "constant": false,
      "inputs": [
        {
          "name": "patentOffice",
          "type": "address"
        }
      ],
      "name": "registerPatentOffices",
      "outputs": [],
      "payable": false,
      "stateMutability": "nonpayable",
      "type": "function"
    },
    {
      "constant": true,
      "inputs": [
        {
          "name": "drawer",
          "type": "address"
        }
      ],
      "name": "isRegisteredAsDrawer",
      "outputs": [
        {
          "name": "",
          "type": "bool"
        }
      ],
      "payable": false,
      "stateMutability": "view",
      "type": "function"
    },
    {
      "constant": false,
      "inputs": [
        {
          "name": "patentAgent",
          "type": "address"
        }
      ],
      "name": "registerPatentAgent",
      "outputs": [],
      "payable": false,
      "stateMutability": "nonpayable",
      "type": "function"
    },
    {
      "constant": true,
      "inputs": [
        {
          "name": "patentAgent",
          "type": "address"
        }
      ],
      "name": "isRegisteredAsPatentAgent",
      "outputs": [
        {
          "name": "",
          "type": "bool"
        }
      ],
      "payable": false,
      "stateMutability": "view",
      "type": "function"
    },
    {
      "constant": false,
      "inputs": [
        {
          "name": "nationalizer",
          "type": "address"
        }
      ],
      "name": "registerNationalizer",
      "outputs": [],
      "payable": false,
      "stateMutability": "nonpayable",
      "type": "function"
    },
    {
      "constant": true,
      "inputs": [
        {
          "name": "",
          "type": "uint256"
        }
      ],
      "name": "allInventors",
      "outputs": [
        {
          "name": "",
          "type": "address"
        }
      ],
      "payable": false,
      "stateMutability": "view",
      "type": "function"
    },
    {
      "constant": true,
      "inputs": [
        {
          "name": "",
          "type": "address"
        }
      ],
      "name": "inventors",
      "outputs": [
        {
          "name": "",
          "type": "bool"
        }
      ],
      "payable": false,
      "stateMutability": "view",
      "type": "function"
    },
    {
      "constant": true,
      "inputs": [
        {
          "name": "inventor",
          "type": "address"
        }
      ],
      "name": "isRegisteredAsInventor",
      "outputs": [
        {
          "name": "",
          "type": "bool"
        }
      ],
      "payable": false,
      "stateMutability": "view",
      "type": "function"
    },
    {
      "constant": true,
      "inputs": [
        {
          "name": "",
          "type": "address"
        }
      ],
      "name": "drawers",
      "outputs": [
        {
          "name": "",
          "type": "bool"
        }
      ],
      "payable": false,
      "stateMutability": "view",
      "type": "function"
    },
    {
      "constant": true,
      "inputs": [
        {
          "name": "",
          "type": "address"
        }
      ],
      "name": "patentOffices",
      "outputs": [
        {
          "name": "",
          "type": "bool"
        }
      ],
      "payable": false,
      "stateMutability": "view",
      "type": "function"
    },
    {
      "constant": true,
      "inputs": [
        {
          "name": "",
          "type": "address"
        }
      ],
      "name": "nationalizers",
      "outputs": [
        {
          "name": "",
          "type": "bool"
        }
      ],
      "payable": false,
      "stateMutability": "view",
      "type": "function"
    },
    {
      "constant": false,
      "inputs": [
        {
          "name": "drawer",
          "type": "address"
        }
      ],
      "name": "registerDrawer",
      "outputs": [],
      "payable": false,
      "stateMutability": "nonpayable",
      "type": "function"
    },
    {
      "constant": false,
      "inputs": [
        {
          "name": "inventor",
          "type": "address"
        }
      ],
      "name": "registerInventor",
      "outputs": [],
      "payable": false,
      "stateMutability": "nonpayable",
      "type": "function"
    },
    {
      "constant": true,
      "inputs": [
        {
          "name": "",
          "type": "address"
        }
      ],
      "name": "translators",
      "outputs": [
        {
          "name": "",
          "type": "bool"
        }
      ],
      "payable": false,
      "stateMutability": "view",
      "type": "function"
    },
    {
      "constant": true,
      "inputs": [
        {
          "name": "",
          "type": "address"
        }
      ],
      "name": "patentAgents",
      "outputs": [
        {
          "name": "",
          "type": "bool"
        }
      ],
      "payable": false,
      "stateMutability": "view",
      "type": "function"
    },
    {
      "constant": true,
      "inputs": [],
      "name": "host",
      "outputs": [
        {
          "name": "",
          "type": "address"
        }
      ],
      "payable": false,
      "stateMutability": "view",
      "type": "function"
    },
    {
      "constant": true,
      "inputs": [
        {
          "name": "patentOffice",
          "type": "address"
        }
      ],
      "name": "isRegisteredAsPatentOffice",
      "outputs": [
        {
          "name": "",
          "type": "bool"
        }
      ],
      "payable": false,
      "stateMutability": "view",
      "type": "function"
    },
    {
      "constant": true,
      "inputs": [
        {
          "name": "nationalizer",
          "type": "address"
        }
      ],
      "name": "isRegisteredAsNationalizer",
      "outputs": [
        {
          "name": "",
          "type": "bool"
        }
      ],
      "payable": false,
      "stateMutability": "view",
      "type": "function"
    },
    {
      "inputs": [],
      "payable": false,
      "stateMutability": "nonpayable",
      "type": "constructor"
    },
    {
      "anonymous": false,
      "inputs": [
        {
          "indexed": true,
          "name": "patentAgent",
          "type": "address"
        },
        {
          "indexed": true,
          "name": "inventor",
          "type": "address"
        },
        {
          "indexed": false,
          "name": "fileHash",
          "type": "string"
        }
      ],
      "name": "approvePatentAgentContractRequest",
      "type": "event"
    },
    {
      "anonymous": false,
      "inputs": [
        {
          "indexed": false,
          "name": "fileHash",
          "type": "string"
        }
      ],
      "name": "contractApproved",
      "type": "event"
    },
    {
      "anonymous": false,
      "inputs": [],
      "name": "contributionPhaseFinished",
      "type": "event"
    },
    {
      "constant": false,
      "inputs": [
        {
          "name": "ipfsFileHashId",
          "type": "string"
        }
      ],
      "name": "addContribution",
      "outputs": [],
      "payable": false,
      "stateMutability": "nonpayable",
      "type": "function"
    },
    {
      "constant": false,
      "inputs": [
        {
          "name": "inventors",
          "type": "address[]"
        },
        {
          "name": "percentages",
          "type": "uint256[]"
        }
      ],
      "name": "addSharesProposal",
      "outputs": [],
      "payable": false,
      "stateMutability": "nonpayable",
      "type": "function"
    },
    {
      "constant": true,
      "inputs": [
        {
          "name": "inventor",
          "type": "address"
        }
      ],
      "name": "getContributions",
      "outputs": [
        {
          "name": "",
          "type": "string"
        }
      ],
      "payable": false,
      "stateMutability": "view",
      "type": "function"
    },
    {
      "constant": true,
      "inputs": [],
      "name": "getShare",
      "outputs": [
        {
          "name": "",
          "type": "uint256"
        }
      ],
      "payable": false,
      "stateMutability": "view",
      "type": "function"
    },
    {
      "constant": false,
      "inputs": [],
      "name": "approveShare",
      "outputs": [],
      "payable": false,
      "stateMutability": "nonpayable",
      "type": "function"
    },
    {
      "constant": true,
      "inputs": [],
      "name": "sharesAcceptedByAllInventors",
      "outputs": [
        {
          "name": "",
          "type": "bool"
        }
      ],
      "payable": false,
      "stateMutability": "view",
      "type": "function"
    },
    {
      "constant": false,
      "inputs": [
        {
          "name": "ipfsFileHashId",
          "type": "string"
        }
      ],
      "name": "uploadInventorsContract",
      "outputs": [],
      "payable": false,
      "stateMutability": "nonpayable",
      "type": "function"
    },
    {
      "constant": false,
      "inputs": [],
      "name": "approvePatentAgentContract",
      "outputs": [],
      "payable": false,
      "stateMutability": "nonpayable",
      "type": "function"
    }
  ],
  "bytecode": "0x608060405234801561001057600080fd5b5060008054600160a060020a03191633179055600a805460ff191690556117c58061003c6000396000f3fe608060405234801561001057600080fd5b50600436106101e1576000357c0100000000000000000000000000000000000000000000000000000000900480637ef27b2511610116578063c7559c2b116100b4578063e016b6911161008e578063e016b691146107cd578063f437bc59146107d5578063f4e0bd3c146107dd578063fc413e7314610803576101e1565b8063c7559c2b1461075b578063cbb96b0014610781578063d89c8d66146107a7576101e1565b80639a287c2c116100f05780639a287c2c146106c3578063a7bbc0d7146106e9578063ad0273e61461070f578063c1e0afff14610735576101e1565b80637ef27b251461063e578063800fdf85146106775780638183a2311461069d576101e1565b80635e3b54f1116101835780636db64f861161015d5780636db64f86146104b157806375298734146104d757806376e10a2c146104f15780637952fc7314610517576101e1565b80635e3b54f1146103bf5780635fd7064214610465578063613f93d51461048b576101e1565b80632d42ccae116101bf5780632d42ccae1461023257806330909003146102d85780633f19d043146102fe57806340a80beb14610399576101e1565b8063019aa141146101e65780630dea84c814610202578063154f741a1461020c575b600080fd5b6101ee610829565b604080519115158252519081900360200190f35b61020a610833565b005b6101ee6004803603602081101561022257600080fd5b5035600160a060020a0316610999565b61020a6004803603602081101561024857600080fd5b81019060208101813564010000000081111561026357600080fd5b82018360208201111561027557600080fd5b8035906020019184600183028401116401000000008311171561029757600080fd5b91908080601f0160208091040260200160405190810160405280939291908181526020018383808284376000920191909152509295506109b7945050505050565b61020a600480360360208110156102ee57600080fd5b5035600160a060020a0316610af4565b6103246004803603602081101561031457600080fd5b5035600160a060020a0316610b2f565b6040805160208082528351818301528351919283929083019185019080838360005b8381101561035e578181015183820152602001610346565b50505050905090810190601f16801561038b5780820380516001836020036101000a031916815260200191505b509250505060405180910390f35b61020a600480360360208110156103af57600080fd5b5035600160a060020a0316610c75565b61020a600480360360208110156103d557600080fd5b8101906020810181356401000000008111156103f057600080fd5b82018360208201111561040257600080fd5b8035906020019184600183028401116401000000008311171561042457600080fd5b91908080601f016020809104026020016040519081016040528093929190818152602001838380828437600092019190915250929550610cb0945050505050565b6101ee6004803603602081101561047b57600080fd5b5035600160a060020a0316610d00565b61020a600480360360208110156104a157600080fd5b5035600160a060020a0316610d1e565b6101ee600480360360208110156104c757600080fd5b5035600160a060020a0316610d59565b6104df610d77565b60408051918252519081900360200190f35b61020a6004803603602081101561050757600080fd5b5035600160a060020a0316610de8565b61020a6004803603604081101561052d57600080fd5b81019060208101813564010000000081111561054857600080fd5b82018360208201111561055a57600080fd5b8035906020019184602083028401116401000000008311171561057c57600080fd5b91908080602002602001604051908101604052809392919081815260200183836020028082843760009201919091525092959493602081019350359150506401000000008111156105cc57600080fd5b8201836020820111156105de57600080fd5b8035906020019184602083028401116401000000008311171561060057600080fd5b919080806020026020016040519081016040528093929190818152602001838360200280828437600092019190915250929550610e23945050505050565b61065b6004803603602081101561065457600080fd5b503561105c565b60408051600160a060020a039092168252519081900360200190f35b6101ee6004803603602081101561068d57600080fd5b5035600160a060020a0316611084565b6101ee600480360360208110156106b357600080fd5b5035600160a060020a0316611099565b6101ee600480360360208110156106d957600080fd5b5035600160a060020a03166110b7565b6101ee600480360360208110156106ff57600080fd5b5035600160a060020a03166110cc565b6101ee6004803603602081101561072557600080fd5b5035600160a060020a03166110e1565b61020a6004803603602081101561074b57600080fd5b5035600160a060020a03166110f6565b61020a6004803603602081101561077157600080fd5b5035600160a060020a0316611131565b6101ee6004803603602081101561079757600080fd5b5035600160a060020a03166111ea565b6101ee600480360360208110156107bd57600080fd5b5035600160a060020a03166111ff565b61020a611214565b61065b61132d565b6101ee600480360360208110156107f357600080fd5b5035600160a060020a031661133c565b6101ee6004803603602081101561081957600080fd5b5035600160a060020a031661135a565b600a5460ff165b90565b3361083d81611099565b151561084857600080fd5b600a5460ff16801561085d5750600f5460ff16155b151561086857600080fd5b336000908152600e60205260408120805460ff19166001908117909155905b6002548110156108e0578180156108d6575060028054600e91600091849081106108ad57fe5b6000918252602080832090910154600160a060020a0316835282019290925260400190205460ff165b9150600101610887565b50801561099557604080516020808252600c8054600260001961010060018416150201909116049183018290527f4b2eadc9f627f16dc625cda5e1cb15e0042086e9afefd3ba21a63d9670b61f5c939092918291820190849080156109865780601f1061095b57610100808354040283529160200191610986565b820191906000526020600020905b81548152906001019060200180831161096957829003601f168201915b50509250505060405180910390a15b5050565b600160a060020a031660009081526006602052604090205460ff1690565b336109c181610d59565b15156109cc57600080fd5b600a5460ff1615156109dd57600080fd5b600b805473ffffffffffffffffffffffffffffffffffffffff1916331790558151610a0f90600c90602085019061167c565b50600f805460ff1916905560005b600254811015610aef576002805482908110610a3557fe5b6000918252602080832090910154604080518381528751818501528751600160a060020a039093169433947f21a04b7c13fa08171d55ccb2994c3f92be96608259551c11a3cbcc2830755173948a94849390840192860191908190849084905b83811015610aad578181015183820152602001610a95565b50505050905090810190601f168015610ada5780820380516001836020036101000a031916815260200191505b509250505060405180910390a3600101610a1d565b505050565b600054600160a060020a03163314610b0b57600080fd5b600160a060020a03166000908152600660205260409020805460ff19166001179055565b60606000610b3c33611099565b15610b45575060015b801515610b5157600080fd5b60408051602081810183526000808352600160a060020a0387168152600890915291822090915b8154811015610c6b57610c61838383815481101515610b9357fe5b600091825260209182902001805460408051601f6002600019610100600187161502019094169390930492830185900485028101850190915281815292830182828015610c215780601f10610bf657610100808354040283529160200191610c21565b820191906000526020600020905b815481529060010190602001808311610c0457829003601f168201915b50505050506040805190810160405280600181526020017f0a00000000000000000000000000000000000000000000000000000000000000815250611378565b9250600101610b78565b5090949350505050565b600054600160a060020a03163314610c8c57600080fd5b600160a060020a03166000908152600760205260409020805460ff19166001179055565b33610cba81611099565b1515610cc557600080fd5b33600090815260086020908152604082208054600181018083559184529282902085519193610cfa939101919086019061167c565b50505050565b600160a060020a031660009081526004602052604090205460ff1690565b600054600160a060020a03163314610d3557600080fd5b600160a060020a03166000908152600360205260409020805460ff19166001179055565b600160a060020a031660009081526003602052604090205460ff1690565b600080805b600954811015610de2576009805433919083908110610d9757fe5b6000918252602090912060039091020154600160a060020a03161415610dda576009805482908110610dc557fe5b90600052602060002090600302016001015491505b600101610d7c565b50905090565b600054600160a060020a03163314610dff57600080fd5b600160a060020a03166000908152600560205260409020805460ff19166001179055565b33610e2d81611099565b1515610e3857600080fd5b8151835114610e4657600080fd5b60005b600254811015610ece576000805b8551811015610eb8578581815181101515610e6e57fe5b90602001906020020151600160a060020a0316600284815481101515610e9057fe5b600091825260209091200154600160a060020a03161415610eb057600191505b600101610e57565b50801515610ec557600080fd5b50600101610e49565b506000805b8351811015610f01578381815181101515610eea57fe5b602090810290910101519190910190600101610ed3565b5060648114610f0f57600080fd5b610f1b600960006116fa565b60005b845181101561105557610f2f61171b565b6060604051908101604052808784815181101515610f4957fe5b90602001906020020151600160a060020a031681526020018684815181101515610f6f57fe5b6020908102919091018101518252600091810182905260098054600180820183559190935283517f6e1540171b6c0c960b71a7020d9f60077f6af931a8bbf590da0223dacf75c7af6003909402938401805473ffffffffffffffffffffffffffffffffffffffff1916600160a060020a03909216919091179055908301517f6e1540171b6c0c960b71a7020d9f60077f6af931a8bbf590da0223dacf75c7b08301556040909201517f6e1540171b6c0c960b71a7020d9f60077f6af931a8bbf590da0223dacf75c7b1909101805460ff1916911515919091179055919091019050610f1e565b5050505050565b600280548290811061106a57fe5b600091825260209091200154600160a060020a0316905081565b60016020526000908152604090205460ff1681565b600160a060020a031660009081526001602052604090205460ff1690565b60046020526000908152604090205460ff1681565b60076020526000908152604090205460ff1681565b60056020526000908152604090205460ff1681565b600054600160a060020a0316331461110d57600080fd5b600160a060020a03166000908152600460205260409020805460ff19166001179055565b600054600160a060020a0316331461114857600080fd5b600160a060020a03811660009081526001602052604090205460ff1615156111c357600280546001810182556000919091527f405787fa12a823e0f2b7631cc41b3ba8828b3321ca811111fa75cd3aa3bb5ace01805473ffffffffffffffffffffffffffffffffffffffff1916600160a060020a0383161790555b600160a060020a03166000908152600160208190526040909120805460ff19169091179055565b60066020526000908152604090205460ff1681565b60036020526000908152604090205460ff1681565b3361121e81611099565b151561122957600080fd5b600a805460ff1916600117905560005b6009548110156112f457600980543391908390811061125457fe5b6000918252602090912060039091020154600160a060020a031614156112a857600160098281548110151561128557fe5b60009182526020909120600390910201600201805460ff19169115159190911790555b600a5460ff1680156112db575060098054829081106112c357fe5b600091825260209091206002600390920201015460ff165b600a805460ff1916911515919091179055600101611239565b50600a5460ff161561132a576040517fd121575c2ae15769c781e702e089ea1933aa5decef09220fa9d376c6e9b14e1690600090a15b50565b600054600160a060020a031681565b600160a060020a031660009081526007602052604090205460ff1690565b600160a060020a031660009081526005602052604090205460ff1690565b60606113a7848484602060405190810160405280600081525060206040519081016040528060008152506113af565b949350505050565b6060808690506060869050606086905060608690506060869050606081518351855187518951010101016040519080825280601f01601f191660200182016040528015611403576020820181803883390190505b509050806000805b885181101561148157888181518110151561142257fe5b90602001015160f860020a900460f860020a02838380600101945081518110151561144957fe5b9060200101907effffffffffffffffffffffffffffffffffffffffffffffffffffffffffffff1916908160001a90535060010161140b565b5060005b87518110156114fb57878181518110151561149c57fe5b90602001015160f860020a900460f860020a0283838060010194508151811015156114c357fe5b9060200101907effffffffffffffffffffffffffffffffffffffffffffffffffffffffffffff1916908160001a905350600101611485565b5060005b865181101561157557868181518110151561151657fe5b90602001015160f860020a900460f860020a02838380600101945081518110151561153d57fe5b9060200101907effffffffffffffffffffffffffffffffffffffffffffffffffffffffffffff1916908160001a9053506001016114ff565b5060005b85518110156115ef57858181518110151561159057fe5b90602001015160f860020a900460f860020a0283838060010194508151811015156115b757fe5b9060200101907effffffffffffffffffffffffffffffffffffffffffffffffffffffffffffff1916908160001a905350600101611579565b5060005b845181101561166957848181518110151561160a57fe5b90602001015160f860020a900460f860020a02838380600101945081518110151561163157fe5b9060200101907effffffffffffffffffffffffffffffffffffffffffffffffffffffffffffff1916908160001a9053506001016115f3565b50909d9c50505050505050505050505050565b828054600181600116156101000203166002900490600052602060002090601f016020900481019282601f106116bd57805160ff19168380011785556116ea565b828001600101855582156116ea579182015b828111156116ea5782518255916020019190600101906116cf565b506116f692915061173b565b5090565b508054600082556003029060005260206000209081019061132a9190611755565b604080516060810182526000808252602082018190529181019190915290565b61083091905b808211156116f65760008155600101611741565b61083091905b808211156116f657805473ffffffffffffffffffffffffffffffffffffffff191681556000600182015560028101805460ff1916905560030161175b56fea165627a7a723058203508aed99ff1dcf897d6dd503e5f4f79dda737e813c8bcf5424c27b953e247ea0029",
  "source": "pragma solidity ^0.5.2;\nimport \"./Host.sol\";\n\n/// The patent hub will be hosted by one of the inovators\ncontract PatentHub is Host {\n\t// structs\n\t\t// contribution phase\n\tstruct Share {\n\t\taddress shareholder;\n\t\tuint percentage; \t\t// denoted in values between 0 and 100\n\t\tbool accepted; \t\t\t// true if the shareholder consented\n\t}\n\n\t\t// contracting phase\n\tstruct Contract {\n\t\taddress patentAgent;\n\t\tstring ipfsFileHashId;\n\t\tuint payment;\n\t\tmapping(address => bool) inventorsConsent;\n        bool valid;\n\t}\n\n\t// triggered when inventors need to approve a contract\n    event approvePatentAgentContractRequest(address indexed patentAgent, address indexed inventor, string fileHash);\n\n    // triggered when all parties consented to the linked contract\n    event contractApproved(string fileHash);\n\n\n\t// properties\n\t    // contribution phase\n\tmapping(address => string[]) contributionFileHashIds;\n\tShare[] shares;\n\tbool shareProposalAcceptedByAll;\n\n        // patent agent contracting phase\n\tContract patentAgentInventorsContract;\n\tmapping(address => Contract) thirdPartyContracts;\n\n\n\t// events for communication with frontend\n\tevent contributionPhaseFinished();\n\n\tconstructor() public {\n\t\thost = msg.sender;\n\t\tshareProposalAcceptedByAll = false;\n\t}\n\n\t// functions - contributions and share proposal\n\tfunction addContribution(string memory ipfsFileHashId) public onlyInventor(msg.sender) {\n\t\tcontributionFileHashIds[msg.sender].push(ipfsFileHashId);\n\t}\n\n\tfunction addSharesProposal(address[] memory inventors, uint[] memory percentages) public onlyInventor(msg.sender) {\n\t    require(inventors.length == percentages.length);\n\t    \n\t    // check whether all inventors are included in the shares porposal\n\t\tfor (uint i=0; i<allInventors.length; i++) {\n\t\t    bool isIncluded = false;\n\t\t    \n\t\t    for (uint j=0; j<inventors.length; j++) {\n\t\t        if (allInventors[i] == inventors[j]) {\n\t\t            isIncluded = true;\n\t\t        }\n\t\t    }\n\t\t    \n\t\t    require(isIncluded);\n\t\t}\n\t    \n\t    // check whether percentages amount to 100\n\t    uint sum = 0;\n\t    for (uint i=0; i<percentages.length; i++) {\n            sum += percentages[i];\n        }\n        require(sum == 100);\n\t   \n\t    // store the shares\n\t\tdelete shares;\n\t\tfor (uint i=0; i<inventors.length; i++) {\n            Share memory share = Share(inventors[i], percentages[i], false);\n            shares.push(share);\n        }\n\t}\n\n\tfunction getContributions(address inventor) public view returns(string memory) {\n\t\tbool hasAccess = false;\n\t\tif (isRegisteredAsInventor(msg.sender)) {\n\t\t\thasAccess = true;\n\t\t}\n\n\t\trequire(hasAccess);\n\n\t\tstring memory contributionsString = \"\";\n\t\tstring[] storage inventorsContributions = contributionFileHashIds[inventor];\n\n\t\tfor (uint i=0; i<inventorsContributions.length; i++) {\n\t\t\tcontributionsString = strConcat(contributionsString, inventorsContributions[i], \"\\n\");\n        }\n\n\t\treturn contributionsString;\n\t}\n\n\tfunction getShare() public view returns(uint) {\n\t\tuint share = 0;\n\t\tfor (uint i=0; i<shares.length; i++) {\n\t\t\tif (shares[i].shareholder == msg.sender) {\n\t\t\t\tshare = shares[i].percentage;\n\t\t\t}\n        }\n\t\treturn share;\n\t}\n\n\tfunction approveShare() public onlyInventor(msg.sender) {\n\t\tshareProposalAcceptedByAll = true;\n\n\t\tfor (uint i=0; i<shares.length; i++) {\n\t\t\tif (shares[i].shareholder == msg.sender) {\n\t\t\t\tshares[i].accepted = true;\n\t\t\t}\n\t\t\tshareProposalAcceptedByAll = shareProposalAcceptedByAll && shares[i].accepted;\n        }\n\n        if (shareProposalAcceptedByAll) {\n        \temit contributionPhaseFinished();\n        }\n\t}\n\t\n\tfunction sharesAcceptedByAllInventors() public view returns(bool) {\n\t    return shareProposalAcceptedByAll;\n\t}\n\n\t// functions - contracting phase\n\tfunction uploadInventorsContract(string memory ipfsFileHashId) public onlyPatentAgent(msg.sender) {\n\t\trequire(shareProposalAcceptedByAll);\n\t\tpatentAgentInventorsContract.patentAgent = msg.sender;\n\t\tpatentAgentInventorsContract.ipfsFileHashId = ipfsFileHashId;\n\t\tpatentAgentInventorsContract.valid = false;\n\t\tfor (uint i = 0; i < allInventors.length; i++) {\n\t\t\temit approvePatentAgentContractRequest(msg.sender, allInventors[i], ipfsFileHashId);\n\t\t}\n\t}\n\n\tfunction approvePatentAgentContract() public onlyInventor(msg.sender) {\t\n\t\trequire(shareProposalAcceptedByAll && patentAgentInventorsContract.valid == false);\n\t\tpatentAgentInventorsContract.inventorsConsent[msg.sender] = true;\n\n\t\tbool allInventorsConsented = true;\n\t\tfor (uint i = 0; i < allInventors.length; i++) {\n\t\t\tallInventorsConsented = allInventorsConsented && patentAgentInventorsContract.inventorsConsent[allInventors[i]];\n\t\t}\n\n\t\tif (allInventorsConsented) {\n\t\t\temit contractApproved(patentAgentInventorsContract.ipfsFileHashId);\n\t\t}\n\t}\n}\n",
  "sourcePath": "/Users/Korbi/Developer/Blockchain/patent-hub/ethereum-private-network/truffle-code/patent-hub/contracts/PatentHub.sol",
  "compiler": {
    "name": "solc",
    "version": "0.5.2+commit.1df8f40c.Emscripten.clang"
  },
  "schemaVersion": "3.0.11",
  "updatedAt": "2019-06-30T10:21:05.090Z",
  "devdoc": {
    "methods": {}
  },
  "userdoc": {
    "methods": {
      "isRegisteredAsInventor(address)": {
        "notice": "functions for checking registrations of 3rd parties"
      },
      "registerInventor(address)": {
        "notice": "functions for registering 3rd parties"
      }
    },
    "notice": "The patent hub will be hosted by one of the inovators"
  }
}